:100000000C942A000C9434000C9434000C943400AA
:100010000C9434000C9434000C9434000C94340090
:100020000C9434000C9434000C9434000C94340080
:100030000C9434000C9434000C9434000C94340070
:100040000C9434000C9434000C9434000C94340060
:100050000C94340011241FBECFE5D4E0DEBFCDBF29
:100060000E9436000C9447000C9400008AB38E7FE7
:100070008ABB84B3806884BB85B3806885BBC89B1A
:10008000FECF85B3805885BBC899FECFF8CFF894D2
:02009000FFCFA0
:00000001FF
